{
    "_format": "hh3-artifact-1",
    "contractName": "Token",
    "sourceName": "contracts/Token.sol",
    "abi": [
        {
            "inputs": [
                {
                    "internalType": "string",
                    "name": "_name",
                    "type": "string"
                },
                {
                    "internalType": "string",
                    "name": "_symbol",
                    "type": "string"
                },
                {
                    "internalType": "uint256",
                    "name": "maxSupply_",
                    "type": "uint256"
                },
                {
                    "internalType": "address",
                    "name": "admin",
                    "type": "address"
                }
            ],
            "stateMutability": "nonpayable",
            "type": "constructor"
        },
        {
            "inputs": [],
            "name": "AccessControlBadConfirmation",
            "type": "error"
        },
        {
            "inputs": [
                {
                    "internalType": "uint48",
                    "name": "schedule",
                    "type": "uint48"
                }
            ],
            "name": "AccessControlEnforcedDefaultAdminDelay",
            "type": "error"
        },
        {
            "inputs": [],
            "name": "AccessControlEnforcedDefaultAdminRules",
            "type": "error"
        },
        {
            "inputs": [
                {
                    "internalType": "address",
                    "name": "defaultAdmin",
                    "type": "address"
                }
            ],
            "name": "AccessControlInvalidDefaultAdmin",
            "type": "error"
        },
        {
            "inputs": [
                {
                    "internalType": "address",
                    "name": "account",
                    "type": "address"
                },
                {
                    "internalType": "bytes32",
                    "name": "neededRole",
                    "type": "bytes32"
                }
            ],
            "name": "AccessControlUnauthorizedAccount",
            "type": "error"
        },
        {
            "inputs": [
                {
                    "internalType": "address",
                    "name": "spender",
                    "type": "address"
                },
                {
                    "internalType": "uint256",
                    "name": "allowance",
                    "type": "uint256"
                },
                {
                    "internalType": "uint256",
                    "name": "needed",
                    "type": "uint256"
                }
            ],
            "name": "ERC20InsufficientAllowance",
            "type": "error"
        },
        {
            "inputs": [
                {
                    "internalType": "address",
                    "name": "sender",
                    "type": "address"
                },
                {
                    "internalType": "uint256",
                    "name": "balance",
                    "type": "uint256"
                },
                {
                    "internalType": "uint256",
                    "name": "needed",
                    "type": "uint256"
                }
            ],
            "name": "ERC20InsufficientBalance",
            "type": "error"
        },
        {
            "inputs": [
                {
                    "internalType": "address",
                    "name": "approver",
                    "type": "address"
                }
            ],
            "name": "ERC20InvalidApprover",
            "type": "error"
        },
        {
            "inputs": [
                {
                    "internalType": "address",
                    "name": "receiver",
                    "type": "address"
                }
            ],
            "name": "ERC20InvalidReceiver",
            "type": "error"
        },
        {
            "inputs": [
                {
                    "internalType": "address",
                    "name": "sender",
                    "type": "address"
                }
            ],
            "name": "ERC20InvalidSender",
            "type": "error"
        },
        {
            "inputs": [
                {
                    "internalType": "address",
                    "name": "spender",
                    "type": "address"
                }
            ],
            "name": "ERC20InvalidSpender",
            "type": "error"
        },
        {
            "inputs": [
                {
                    "internalType": "uint8",
                    "name": "bits",
                    "type": "uint8"
                },
                {
                    "internalType": "uint256",
                    "name": "value",
                    "type": "uint256"
                }
            ],
            "name": "SafeCastOverflowedUintDowncast",
            "type": "error"
        },
        {
            "anonymous": false,
            "inputs": [
                {
                    "indexed": true,
                    "internalType": "address",
                    "name": "owner",
                    "type": "address"
                },
                {
                    "indexed": true,
                    "internalType": "address",
                    "name": "spender",
                    "type": "address"
                },
                {
                    "indexed": false,
                    "internalType": "uint256",
                    "name": "value",
                    "type": "uint256"
                }
            ],
            "name": "Approval",
            "type": "event"
        },
        {
            "anonymous": false,
            "inputs": [],
            "name": "DefaultAdminDelayChangeCanceled",
            "type": "event"
        },
        {
            "anonymous": false,
            "inputs": [
                {
                    "indexed": false,
                    "internalType": "uint48",
                    "name": "newDelay",
                    "type": "uint48"
                },
                {
                    "indexed": false,
                    "internalType": "uint48",
                    "name": "effectSchedule",
                    "type": "uint48"
                }
            ],
            "name": "DefaultAdminDelayChangeScheduled",
            "type": "event"
        },
        {
            "anonymous": false,
            "inputs": [],
            "name": "DefaultAdminTransferCanceled",
            "type": "event"
        },
        {
            "anonymous": false,
            "inputs": [
                {
                    "indexed": true,
                    "internalType": "address",
                    "name": "newAdmin",
                    "type": "address"
                },
                {
                    "indexed": false,
                    "internalType": "uint48",
                    "name": "acceptSchedule",
                    "type": "uint48"
                }
            ],
            "name": "DefaultAdminTransferScheduled",
            "type": "event"
        },
        {
            "anonymous": false,
            "inputs": [
                {
                    "indexed": true,
                    "internalType": "bytes32",
                    "name": "role",
                    "type": "bytes32"
                },
                {
                    "indexed": true,
                    "internalType": "bytes32",
                    "name": "previousAdminRole",
                    "type": "bytes32"
                },
                {
                    "indexed": true,
                    "internalType": "bytes32",
                    "name": "newAdminRole",
                    "type": "bytes32"
                }
            ],
            "name": "RoleAdminChanged",
            "type": "event"
        },
        {
            "anonymous": false,
            "inputs": [
                {
                    "indexed": true,
                    "internalType": "bytes32",
                    "name": "role",
                    "type": "bytes32"
                },
                {
                    "indexed": true,
                    "internalType": "address",
                    "name": "account",
                    "type": "address"
                },
                {
                    "indexed": true,
                    "internalType": "address",
                    "name": "sender",
                    "type": "address"
                }
            ],
            "name": "RoleGranted",
            "type": "event"
        },
        {
            "anonymous": false,
            "inputs": [
                {
                    "indexed": true,
                    "internalType": "bytes32",
                    "name": "role",
                    "type": "bytes32"
                },
                {
                    "indexed": true,
                    "internalType": "address",
                    "name": "account",
                    "type": "address"
                },
                {
                    "indexed": true,
                    "internalType": "address",
                    "name": "sender",
                    "type": "address"
                }
            ],
            "name": "RoleRevoked",
            "type": "event"
        },
        {
            "anonymous": false,
            "inputs": [
                {
                    "indexed": true,
                    "internalType": "address",
                    "name": "from",
                    "type": "address"
                },
                {
                    "indexed": true,
                    "internalType": "address",
                    "name": "to",
                    "type": "address"
                },
                {
                    "indexed": false,
                    "internalType": "uint256",
                    "name": "value",
                    "type": "uint256"
                }
            ],
            "name": "Transfer",
            "type": "event"
        },
        {
            "inputs": [],
            "name": "DEFAULT_ADMIN_ROLE",
            "outputs": [
                {
                    "internalType": "bytes32",
                    "name": "",
                    "type": "bytes32"
                }
            ],
            "stateMutability": "view",
            "type": "function"
        },
        {
            "inputs": [],
            "name": "MAX_SUPPLY",
            "outputs": [
                {
                    "internalType": "uint256",
                    "name": "",
                    "type": "uint256"
                }
            ],
            "stateMutability": "view",
            "type": "function"
        },
        {
            "inputs": [],
            "name": "MINTER_ROLE",
            "outputs": [
                {
                    "internalType": "bytes32",
                    "name": "",
                    "type": "bytes32"
                }
            ],
            "stateMutability": "view",
            "type": "function"
        },
        {
            "inputs": [],
            "name": "acceptDefaultAdminTransfer",
            "outputs": [],
            "stateMutability": "nonpayable",
            "type": "function"
        },
        {
            "inputs": [
                {
                    "internalType": "address",
                    "name": "owner",
                    "type": "address"
                },
                {
                    "internalType": "address",
                    "name": "spender",
                    "type": "address"
                }
            ],
            "name": "allowance",
            "outputs": [
                {
                    "internalType": "uint256",
                    "name": "",
                    "type": "uint256"
                }
            ],
            "stateMutability": "view",
            "type": "function"
        },
        {
            "inputs": [
                {
                    "internalType": "address",
                    "name": "spender",
                    "type": "address"
                },
                {
                    "internalType": "uint256",
                    "name": "value",
                    "type": "uint256"
                }
            ],
            "name": "approve",
            "outputs": [
                {
                    "internalType": "bool",
                    "name": "",
                    "type": "bool"
                }
            ],
            "stateMutability": "nonpayable",
            "type": "function"
        },
        {
            "inputs": [
                {
                    "internalType": "address",
                    "name": "account",
                    "type": "address"
                }
            ],
            "name": "balanceOf",
            "outputs": [
                {
                    "internalType": "uint256",
                    "name": "",
                    "type": "uint256"
                }
            ],
            "stateMutability": "view",
            "type": "function"
        },
        {
            "inputs": [
                {
                    "internalType": "address",
                    "name": "newAdmin",
                    "type": "address"
                }
            ],
            "name": "beginDefaultAdminTransfer",
            "outputs": [],
            "stateMutability": "nonpayable",
            "type": "function"
        },
        {
            "inputs": [],
            "name": "cancelDefaultAdminTransfer",
            "outputs": [],
            "stateMutability": "nonpayable",
            "type": "function"
        },
        {
            "inputs": [
                {
                    "internalType": "uint48",
                    "name": "newDelay",
                    "type": "uint48"
                }
            ],
            "name": "changeDefaultAdminDelay",
            "outputs": [],
            "stateMutability": "nonpayable",
            "type": "function"
        },
        {
            "inputs": [],
            "name": "decimals",
            "outputs": [
                {
                    "internalType": "uint8",
                    "name": "",
                    "type": "uint8"
                }
            ],
            "stateMutability": "view",
            "type": "function"
        },
        {
            "inputs": [],
            "name": "defaultAdmin",
            "outputs": [
                {
                    "internalType": "address",
                    "name": "",
                    "type": "address"
                }
            ],
            "stateMutability": "view",
            "type": "function"
        },
        {
            "inputs": [],
            "name": "defaultAdminDelay",
            "outputs": [
                {
                    "internalType": "uint48",
                    "name": "",
                    "type": "uint48"
                }
            ],
            "stateMutability": "view",
            "type": "function"
        },
        {
            "inputs": [],
            "name": "defaultAdminDelayIncreaseWait",
            "outputs": [
                {
                    "internalType": "uint48",
                    "name": "",
                    "type": "uint48"
                }
            ],
            "stateMutability": "view",
            "type": "function"
        },
        {
            "inputs": [
                {
                    "internalType": "bytes32",
                    "name": "role",
                    "type": "bytes32"
                }
            ],
            "name": "getRoleAdmin",
            "outputs": [
                {
                    "internalType": "bytes32",
                    "name": "",
                    "type": "bytes32"
                }
            ],
            "stateMutability": "view",
            "type": "function"
        },
        {
            "inputs": [
                {
                    "internalType": "bytes32",
                    "name": "role",
                    "type": "bytes32"
                },
                {
                    "internalType": "address",
                    "name": "account",
                    "type": "address"
                }
            ],
            "name": "grantRole",
            "outputs": [],
            "stateMutability": "nonpayable",
            "type": "function"
        },
        {
            "inputs": [
                {
                    "internalType": "bytes32",
                    "name": "role",
                    "type": "bytes32"
                },
                {
                    "internalType": "address",
                    "name": "account",
                    "type": "address"
                }
            ],
            "name": "hasRole",
            "outputs": [
                {
                    "internalType": "bool",
                    "name": "",
                    "type": "bool"
                }
            ],
            "stateMutability": "view",
            "type": "function"
        },
        {
            "inputs": [
                {
                    "internalType": "address",
                    "name": "to",
                    "type": "address"
                },
                {
                    "internalType": "uint256",
                    "name": "amount",
                    "type": "uint256"
                }
            ],
            "name": "mint",
            "outputs": [],
            "stateMutability": "nonpayable",
            "type": "function"
        },
        {
            "inputs": [],
            "name": "name",
            "outputs": [
                {
                    "internalType": "string",
                    "name": "",
                    "type": "string"
                }
            ],
            "stateMutability": "view",
            "type": "function"
        },
        {
            "inputs": [],
            "name": "owner",
            "outputs": [
                {
                    "internalType": "address",
                    "name": "",
                    "type": "address"
                }
            ],
            "stateMutability": "view",
            "type": "function"
        },
        {
            "inputs": [],
            "name": "pendingDefaultAdmin",
            "outputs": [
                {
                    "internalType": "address",
                    "name": "newAdmin",
                    "type": "address"
                },
                {
                    "internalType": "uint48",
                    "name": "schedule",
                    "type": "uint48"
                }
            ],
            "stateMutability": "view",
            "type": "function"
        },
        {
            "inputs": [],
            "name": "pendingDefaultAdminDelay",
            "outputs": [
                {
                    "internalType": "uint48",
                    "name": "newDelay",
                    "type": "uint48"
                },
                {
                    "internalType": "uint48",
                    "name": "schedule",
                    "type": "uint48"
                }
            ],
            "stateMutability": "view",
            "type": "function"
        },
        {
            "inputs": [
                {
                    "internalType": "bytes32",
                    "name": "role",
                    "type": "bytes32"
                },
                {
                    "internalType": "address",
                    "name": "account",
                    "type": "address"
                }
            ],
            "name": "renounceRole",
            "outputs": [],
            "stateMutability": "nonpayable",
            "type": "function"
        },
        {
            "inputs": [
                {
                    "internalType": "bytes32",
                    "name": "role",
                    "type": "bytes32"
                },
                {
                    "internalType": "address",
                    "name": "account",
                    "type": "address"
                }
            ],
            "name": "revokeRole",
            "outputs": [],
            "stateMutability": "nonpayable",
            "type": "function"
        },
        {
            "inputs": [],
            "name": "rollbackDefaultAdminDelay",
            "outputs": [],
            "stateMutability": "nonpayable",
            "type": "function"
        },
        {
            "inputs": [
                {
                    "internalType": "bytes4",
                    "name": "interfaceId",
                    "type": "bytes4"
                }
            ],
            "name": "supportsInterface",
            "outputs": [
                {
                    "internalType": "bool",
                    "name": "",
                    "type": "bool"
                }
            ],
            "stateMutability": "view",
            "type": "function"
        },
        {
            "inputs": [],
            "name": "symbol",
            "outputs": [
                {
                    "internalType": "string",
                    "name": "",
                    "type": "string"
                }
            ],
            "stateMutability": "view",
            "type": "function"
        },
        {
            "inputs": [],
            "name": "totalSupply",
            "outputs": [
                {
                    "internalType": "uint256",
                    "name": "",
                    "type": "uint256"
                }
            ],
            "stateMutability": "view",
            "type": "function"
        },
        {
            "inputs": [
                {
                    "internalType": "address",
                    "name": "to",
                    "type": "address"
                },
                {
                    "internalType": "uint256",
                    "name": "value",
                    "type": "uint256"
                }
            ],
            "name": "transfer",
            "outputs": [
                {
                    "internalType": "bool",
                    "name": "",
                    "type": "bool"
                }
            ],
            "stateMutability": "nonpayable",
            "type": "function"
        },
        {
            "inputs": [
                {
                    "internalType": "address",
                    "name": "from",
                    "type": "address"
                },
                {
                    "internalType": "address",
                    "name": "to",
                    "type": "address"
                },
                {
                    "internalType": "uint256",
                    "name": "value",
                    "type": "uint256"
                }
            ],
            "name": "transferFrom",
            "outputs": [
                {
                    "internalType": "bool",
                    "name": "",
                    "type": "bool"
                }
            ],
            "stateMutability": "nonpayable",
            "type": "function"
        }
    ],
    "bytecode": "0x60a060405234801561000f575f5ffd5b50604051612e89380380612e898339818101604052810190610031919061057b565b5f8185858160039081610044919061081e565b508060049081610054919061081e565b5050505f73ffffffffffffffffffffffffffffffffffffffff168173ffffffffffffffffffffffffffffffffffffffff16036100c7575f6040517fc22c80220000000000000000000000000000000000000000000000000000000081526004016100be91906108fc565b60405180910390fd5b816006601a6101000a81548165ffffffffffff021916908365ffffffffffff1602179055506100fe5f5f1b8261014360201b60201c565b50505081608081815250506101397f9f2df0fed2c77648de5860a4cc508cd0818c85b8b8a1ab4ceeef8d981c8956a68261014360201b60201c565b5050505050610915565b5f5f5f1b8303610200575f73ffffffffffffffffffffffffffffffffffffffff1661017261021860201b60201c565b73ffffffffffffffffffffffffffffffffffffffff16146101bf576040517f3fc3c27a00000000000000000000000000000000000000000000000000000000815260040160405180910390fd5b8160075f6101000a81548173ffffffffffffffffffffffffffffffffffffffff021916908373ffffffffffffffffffffffffffffffffffffffff1602179055505b610210838361024060201b60201c565b905092915050565b5f60075f9054906101000a900473ffffffffffffffffffffffffffffffffffffffff16905090565b5f610251838361033660201b60201c565b61032c57600160055f8581526020019081526020015f205f015f8473ffffffffffffffffffffffffffffffffffffffff1673ffffffffffffffffffffffffffffffffffffffff1681526020019081526020015f205f6101000a81548160ff0219169083151502179055506102c961039a60201b60201c565b73ffffffffffffffffffffffffffffffffffffffff168273ffffffffffffffffffffffffffffffffffffffff16847f2f8788117e7eff1d82e926ec794901d17c78024a50270940304540a733656f0d60405160405180910390a460019050610330565b5f90505b92915050565b5f60055f8481526020019081526020015f205f015f8373ffffffffffffffffffffffffffffffffffffffff1673ffffffffffffffffffffffffffffffffffffffff1681526020019081526020015f205f9054906101000a900460ff16905092915050565b5f33905090565b5f604051905090565b5f5ffd5b5f5ffd5b5f5ffd5b5f5ffd5b5f601f19601f8301169050919050565b7f4e487b71000000000000000000000000000000000000000000000000000000005f52604160045260245ffd5b610400826103ba565b810181811067ffffffffffffffff8211171561041f5761041e6103ca565b5b80604052505050565b5f6104316103a1565b905061043d82826103f7565b919050565b5f67ffffffffffffffff82111561045c5761045b6103ca565b5b610465826103ba565b9050602081019050919050565b8281835e5f83830152505050565b5f61049261048d84610442565b610428565b9050828152602081018484840111156104ae576104ad6103b6565b5b6104b9848285610472565b509392505050565b5f82601f8301126104d5576104d46103b2565b5b81516104e5848260208601610480565b91505092915050565b5f819050919050565b610500816104ee565b811461050a575f5ffd5b50565b5f8151905061051b816104f7565b92915050565b5f73ffffffffffffffffffffffffffffffffffffffff82169050919050565b5f61054a82610521565b9050919050565b61055a81610540565b8114610564575f5ffd5b50565b5f8151905061057581610551565b92915050565b5f5f5f5f60808587031215610593576105926103aa565b5b5f85015167ffffffffffffffff8111156105b0576105af6103ae565b5b6105bc878288016104c1565b945050602085015167ffffffffffffffff8111156105dd576105dc6103ae565b5b6105e9878288016104c1565b93505060406105fa8782880161050d565b925050606061060b87828801610567565b91505092959194509250565b5f81519050919050565b7f4e487b71000000000000000000000000000000000000000000000000000000005f52602260045260245ffd5b5f600282049050600182168061066557607f821691505b60208210810361067857610677610621565b5b50919050565b5f819050815f5260205f209050919050565b5f6020601f8301049050919050565b5f82821b905092915050565b5f600883026106da7fffffffffffffffffffffffffffffffffffffffffffffffffffffffffffffffff8261069f565b6106e4868361069f565b95508019841693508086168417925050509392505050565b5f819050919050565b5f61071f61071a610715846104ee565b6106fc565b6104ee565b9050919050565b5f819050919050565b61073883610705565b61074c61074482610726565b8484546106ab565b825550505050565b5f5f905090565b610763610754565b61076e81848461072f565b505050565b5b81811015610791576107865f8261075b565b600181019050610774565b5050565b601f8211156107d6576107a78161067e565b6107b084610690565b810160208510156107bf578190505b6107d36107cb85610690565b830182610773565b50505b505050565b5f82821c905092915050565b5f6107f65f19846008026107db565b1980831691505092915050565b5f61080e83836107e7565b9150826002028217905092915050565b61082782610617565b67ffffffffffffffff8111156108405761083f6103ca565b5b61084a825461064e565b610855828285610795565b5f60209050601f831160018114610886575f8415610874578287015190505b61087e8582610803565b8655506108e5565b601f1984166108948661067e565b5f5b828110156108bb57848901518255600182019150602085019450602081019050610896565b868310156108d857848901516108d4601f8916826107e7565b8355505b6001600288020188555050505b505050505050565b6108f681610540565b82525050565b5f60208201905061090f5f8301846108ed565b92915050565b6080516125556109345f395f818161079d015261167801526125555ff3fe608060405234801561000f575f5ffd5b50600436106101d8575f3560e01c806370a0823111610102578063a9059cbb116100a0578063d53913931161006f578063d539139314610536578063d547741f14610554578063d602b9fd14610570578063dd62ed3e1461057a576101d8565b8063a9059cbb146104bf578063cc8463c8146104ef578063cefc14291461050d578063cf6eefb714610517576101d8565b806391d14854116100dc57806391d148541461043457806395d89b4114610464578063a1eda53c14610482578063a217fddf146104a1576101d8565b806370a08231146103c857806384ef8ffc146103f85780638da5cb5b14610416576101d8565b8063248a9ca31161017a57806336568abe1161014957806336568abe1461035857806340c10f1914610374578063634e93da14610390578063649a5ec7146103ac576101d8565b8063248a9ca3146102d05780632f2ff15d14610300578063313ce5671461031c57806332cb6b0c1461033a576101d8565b8063095ea7b3116101b6578063095ea7b3146102485780630aa6220b1461027857806318160ddd1461028257806323b872dd146102a0576101d8565b806301ffc9a7146101dc578063022d63fb1461020c57806306fdde031461022a575b5f5ffd5b6101f660048036038101906101f19190611e2d565b6105aa565b6040516102039190611e72565b60405180910390f35b610214610623565b6040516102219190611eab565b60405180910390f35b61023261062d565b60405161023f9190611f34565b60405180910390f35b610262600480360381019061025d9190611fe1565b6106bd565b60405161026f9190611e72565b60405180910390f35b6102806106df565b005b61028a6106f6565b604051610297919061202e565b60405180910390f35b6102ba60048036038101906102b59190612047565b6106ff565b6040516102c79190611e72565b60405180910390f35b6102ea60048036038101906102e591906120ca565b61072d565b6040516102f79190612104565b60405180910390f35b61031a6004803603810190610315919061211d565b61074a565b005b610324610793565b6040516103319190612176565b60405180910390f35b61034261079b565b60405161034f919061202e565b60405180910390f35b610372600480360381019061036d919061211d565b6107bf565b005b61038e60048036038101906103899190611fe1565b6108d1565b005b6103aa60048036038101906103a5919061218f565b61090a565b005b6103c660048036038101906103c191906121e4565b610923565b005b6103e260048036038101906103dd919061218f565b61093c565b6040516103ef919061202e565b60405180910390f35b610400610981565b60405161040d919061221e565b60405180910390f35b61041e6109a9565b60405161042b919061221e565b60405180910390f35b61044e6004803603810190610449919061211d565b6109b7565b60405161045b9190611e72565b60405180910390f35b61046c610a1b565b6040516104799190611f34565b60405180910390f35b61048a610aab565b604051610498929190612237565b60405180910390f35b6104a9610b09565b6040516104b69190612104565b60405180910390f35b6104d960048036038101906104d49190611fe1565b610b0f565b6040516104e69190611e72565b60405180910390f35b6104f7610b31565b6040516105049190611eab565b60405180910390f35b610515610b9e565b005b61051f610c33565b60405161052d92919061225e565b60405180910390f35b61053e610c74565b60405161054b9190612104565b60405180910390f35b61056e6004803603810190610569919061211d565b610c98565b005b610578610ce1565b005b610594600480360381019061058f9190612285565b610cf8565b6040516105a1919061202e565b60405180910390f35b5f7f31498786000000000000000000000000000000000000000000000000000000007bffffffffffffffffffffffffffffffffffffffffffffffffffffffff1916827bffffffffffffffffffffffffffffffffffffffffffffffffffffffff1916148061061c575061061b82610d7a565b5b9050919050565b5f62069780905090565b60606003805461063c906122f0565b80601f0160208091040260200160405190810160405280929190818152602001828054610668906122f0565b80156106b35780601f1061068a576101008083540402835291602001916106b3565b820191905f5260205f20905b81548152906001019060200180831161069657829003601f168201915b5050505050905090565b5f5f6106c7610df3565b90506106d4818585610dfa565b600191505092915050565b5f5f1b6106eb81610e0c565b6106f3610e20565b50565b5f600254905090565b5f5f610709610df3565b9050610716858285610e2c565b610721858585610ebf565b60019150509392505050565b5f60055f8381526020019081526020015f20600101549050919050565b5f5f1b8203610785576040517f3fc3c27a00000000000000000000000000000000000000000000000000000000815260040160405180910390fd5b61078f8282610faf565b5050565b5f6012905090565b7f000000000000000000000000000000000000000000000000000000000000000081565b5f5f1b8214801561080257506107d3610981565b73ffffffffffffffffffffffffffffffffffffffff168173ffffffffffffffffffffffffffffffffffffffff16145b156108c3575f5f610811610c33565b915091505f73ffffffffffffffffffffffffffffffffffffffff168273ffffffffffffffffffffffffffffffffffffffff16141580610856575061085481610fd1565b155b80610867575061086581610fe5565b155b156108a957806040517f19ca5ebb0000000000000000000000000000000000000000000000000000000081526004016108a09190611eab565b60405180910390fd5b600660146101000a81549065ffffffffffff021916905550505b6108cd8282610ff8565b5050565b7f9f2df0fed2c77648de5860a4cc508cd0818c85b8b8a1ab4ceeef8d981c8956a66108fb81610e0c565b6109058383611073565b505050565b5f5f1b61091681610e0c565b61091f826110f2565b5050565b5f5f1b61092f81610e0c565b6109388261116c565b5050565b5f5f5f8373ffffffffffffffffffffffffffffffffffffffff1673ffffffffffffffffffffffffffffffffffffffff1681526020019081526020015f20549050919050565b5f60075f9054906101000a900473ffffffffffffffffffffffffffffffffffffffff16905090565b5f6109b2610981565b905090565b5f60055f8481526020019081526020015f205f015f8373ffffffffffffffffffffffffffffffffffffffff1673ffffffffffffffffffffffffffffffffffffffff1681526020019081526020015f205f9054906101000a900460ff16905092915050565b606060048054610a2a906122f0565b80601f0160208091040260200160405190810160405280929190818152602001828054610a56906122f0565b8015610aa15780601f10610a7857610100808354040283529160200191610aa1565b820191905f5260205f20905b815481529060010190602001808311610a8457829003601f168201915b5050505050905090565b5f5f6007601a9054906101000a900465ffffffffffff169050610acd81610fd1565b8015610adf5750610add81610fe5565b155b610aea575f5f610b01565b600760149054906101000a900465ffffffffffff16815b915091509091565b5f5f1b81565b5f5f610b19610df3565b9050610b26818585610ebf565b600191505092915050565b5f5f6007601a9054906101000a900465ffffffffffff169050610b5381610fd1565b8015610b645750610b6381610fe5565b5b610b82576006601a9054906101000a900465ffffffffffff16610b98565b600760149054906101000a900465ffffffffffff165b91505090565b5f610ba7610c33565b5090508073ffffffffffffffffffffffffffffffffffffffff16610bc9610df3565b73ffffffffffffffffffffffffffffffffffffffff1614610c2857610bec610df3565b6040517fc22c8022000000000000000000000000000000000000000000000000000000008152600401610c1f919061221e565b60405180910390fd5b610c306111d2565b50565b5f5f60065f9054906101000a900473ffffffffffffffffffffffffffffffffffffffff16600660149054906101000a900465ffffffffffff16915091509091565b7f9f2df0fed2c77648de5860a4cc508cd0818c85b8b8a1ab4ceeef8d981c8956a681565b5f5f1b8203610cd3576040517f3fc3c27a00000000000000000000000000000000000000000000000000000000815260040160405180910390fd5b610cdd828261129d565b5050565b5f5f1b610ced81610e0c565b610cf56112bf565b50565b5f60015f8473ffffffffffffffffffffffffffffffffffffffff1673ffffffffffffffffffffffffffffffffffffffff1681526020019081526020015f205f8373ffffffffffffffffffffffffffffffffffffffff1673ffffffffffffffffffffffffffffffffffffffff1681526020019081526020015f2054905092915050565b5f7f7965db0b000000000000000000000000000000000000000000000000000000007bffffffffffffffffffffffffffffffffffffffffffffffffffffffff1916827bffffffffffffffffffffffffffffffffffffffffffffffffffffffff19161480610dec5750610deb826112cb565b5b9050919050565b5f33905090565b610e078383836001611334565b505050565b610e1d81610e18610df3565b611503565b50565b610e2a5f5f611554565b565b5f610e378484610cf8565b90507fffffffffffffffffffffffffffffffffffffffffffffffffffffffffffffffff811015610eb95781811015610eaa578281836040517ffb8f41b2000000000000000000000000000000000000000000000000000000008152600401610ea193929190612320565b60405180910390fd5b610eb884848484035f611334565b5b50505050565b5f73ffffffffffffffffffffffffffffffffffffffff168373ffffffffffffffffffffffffffffffffffffffff1603610f2f575f6040517f96c6fd1e000000000000000000000000000000000000000000000000000000008152600401610f26919061221e565b60405180910390fd5b5f73ffffffffffffffffffffffffffffffffffffffff168273ffffffffffffffffffffffffffffffffffffffff1603610f9f575f6040517fec442f05000000000000000000000000000000000000000000000000000000008152600401610f96919061221e565b60405180910390fd5b610faa838383611643565b505050565b610fb88261072d565b610fc181610e0c565b610fcb83836116fc565b50505050565b5f5f8265ffffffffffff1614159050919050565b5f428265ffffffffffff16109050919050565b611000610df3565b73ffffffffffffffffffffffffffffffffffffffff168173ffffffffffffffffffffffffffffffffffffffff1614611064576040517f6697b23200000000000000000000000000000000000000000000000000000000815260040160405180910390fd5b61106e82826117c5565b505050565b5f73ffffffffffffffffffffffffffffffffffffffff168273ffffffffffffffffffffffffffffffffffffffff16036110e3575f6040517fec442f050000000000000000000000000000000000000000000000000000000081526004016110da919061221e565b60405180910390fd5b6110ee5f8383611643565b5050565b5f6110fb610b31565b61110442611845565b61110e9190612382565b905061111a828261189e565b8173ffffffffffffffffffffffffffffffffffffffff167f3377dc44241e779dd06afab5b788a35ca5f3b778836e2990bdb26a2a4b2e5ed6826040516111609190611eab565b60405180910390a25050565b5f6111768261194f565b61117f42611845565b6111899190612382565b90506111958282611554565b7ff1038c18cf84a56e432fdbfaf746924b7ea511dfe03a6506a0ceba4888788d9b82826040516111c6929190612237565b60405180910390a15050565b5f5f6111dc610c33565b915091506111e981610fd1565b15806111fb57506111f981610fe5565b155b1561123d57806040517f19ca5ebb0000000000000000000000000000000000000000000000000000000081526004016112349190611eab565b60405180910390fd5b6112505f5f1b61124b610981565b6117c5565b5061125d5f5f1b836116fc565b5060065f6101000a81549073ffffffffffffffffffffffffffffffffffffffff0219169055600660146101000a81549065ffffffffffff02191690555050565b6112a68261072d565b6112af81610e0c565b6112b983836117c5565b50505050565b6112c95f5f61189e565b565b5f7f01ffc9a7000000000000000000000000000000000000000000000000000000007bffffffffffffffffffffffffffffffffffffffffffffffffffffffff1916827bffffffffffffffffffffffffffffffffffffffffffffffffffffffff1916149050919050565b5f73ffffffffffffffffffffffffffffffffffffffff168473ffffffffffffffffffffffffffffffffffffffff16036113a4575f6040517fe602df0500000000000000000000000000000000000000000000000000000000815260040161139b919061221e565b60405180910390fd5b5f73ffffffffffffffffffffffffffffffffffffffff168373ffffffffffffffffffffffffffffffffffffffff1603611414575f6040517f94280d6200000000000000000000000000000000000000000000000000000000815260040161140b919061221e565b60405180910390fd5b8160015f8673ffffffffffffffffffffffffffffffffffffffff1673ffffffffffffffffffffffffffffffffffffffff1681526020019081526020015f205f8573ffffffffffffffffffffffffffffffffffffffff1673ffffffffffffffffffffffffffffffffffffffff1681526020019081526020015f208190555080156114fd578273ffffffffffffffffffffffffffffffffffffffff168473ffffffffffffffffffffffffffffffffffffffff167f8c5be1e5ebec7d5bd14f71427d1e84f3dd0314c0f7b2291e5b200ac8c7c3b925846040516114f4919061202e565b60405180910390a35b50505050565b61150d82826109b7565b6115505780826040517fe2517d3f0000000000000000000000000000000000000000000000000000000081526004016115479291906123bb565b60405180910390fd5b5050565b5f6007601a9054906101000a900465ffffffffffff16905061157581610fd1565b156115f45761158381610fe5565b156115c657600760149054906101000a900465ffffffffffff166006601a6101000a81548165ffffffffffff021916908365ffffffffffff1602179055506115f3565b7f2b1fa2edafe6f7b9e97c1a9e0c3660e645beb2dcaa2d45bdbf9beaf5472e1ec560405160405180910390a15b5b82600760146101000a81548165ffffffffffff021916908365ffffffffffff160217905550816007601a6101000a81548165ffffffffffff021916908365ffffffffffff160217905550505050565b5f73ffffffffffffffffffffffffffffffffffffffff168373ffffffffffffffffffffffffffffffffffffffff16036116ec577f0000000000000000000000000000000000000000000000000000000000000000816116a06106f6565b6116aa91906123e2565b11156116eb576040517f08c379a00000000000000000000000000000000000000000000000000000000081526004016116e29061245f565b60405180910390fd5b5b6116f78383836119ad565b505050565b5f5f5f1b83036117b3575f73ffffffffffffffffffffffffffffffffffffffff16611725610981565b73ffffffffffffffffffffffffffffffffffffffff1614611772576040517f3fc3c27a00000000000000000000000000000000000000000000000000000000815260040160405180910390fd5b8160075f6101000a81548173ffffffffffffffffffffffffffffffffffffffff021916908373ffffffffffffffffffffffffffffffffffffffff1602179055505b6117bd8383611bc6565b905092915050565b5f5f5f1b8314801561180957506117da610981565b73ffffffffffffffffffffffffffffffffffffffff168273ffffffffffffffffffffffffffffffffffffffff16145b156118335760075f6101000a81549073ffffffffffffffffffffffffffffffffffffffff02191690555b61183d8383611cb0565b905092915050565b5f65ffffffffffff8016821115611896576030826040517f6dfcc65000000000000000000000000000000000000000000000000000000000815260040161188d9291906124bf565b60405180910390fd5b819050919050565b5f6118a7610c33565b9150508260065f6101000a81548173ffffffffffffffffffffffffffffffffffffffff021916908373ffffffffffffffffffffffffffffffffffffffff16021790555081600660146101000a81548165ffffffffffff021916908365ffffffffffff16021790555061191881610fd1565b1561194a577f8886ebfc4259abdbc16601dd8fb5678e54878f47b3c34836cfc51154a960510960405160405180910390a15b505050565b5f5f611959610b31565b90508065ffffffffffff168365ffffffffffff161161198357828161197e91906124e6565b6119a5565b6119a48365ffffffffffff16611997610623565b65ffffffffffff16611d9a565b5b915050919050565b5f73ffffffffffffffffffffffffffffffffffffffff168373ffffffffffffffffffffffffffffffffffffffff16036119fd578060025f8282546119f191906123e2565b92505081905550611acb565b5f5f5f8573ffffffffffffffffffffffffffffffffffffffff1673ffffffffffffffffffffffffffffffffffffffff1681526020019081526020015f2054905081811015611a86578381836040517fe450d38c000000000000000000000000000000000000000000000000000000008152600401611a7d93929190612320565b60405180910390fd5b8181035f5f8673ffffffffffffffffffffffffffffffffffffffff1673ffffffffffffffffffffffffffffffffffffffff1681526020019081526020015f2081905550505b5f73ffffffffffffffffffffffffffffffffffffffff168273ffffffffffffffffffffffffffffffffffffffff1603611b12578060025f8282540392505081905550611b5c565b805f5f8473ffffffffffffffffffffffffffffffffffffffff1673ffffffffffffffffffffffffffffffffffffffff1681526020019081526020015f205f82825401925050819055505b8173ffffffffffffffffffffffffffffffffffffffff168373ffffffffffffffffffffffffffffffffffffffff167fddf252ad1be2c89b69c2b068fc378daa952ba7f163c4a11628f55a4df523b3ef83604051611bb9919061202e565b60405180910390a3505050565b5f611bd183836109b7565b611ca657600160055f8581526020019081526020015f205f015f8473ffffffffffffffffffffffffffffffffffffffff1673ffffffffffffffffffffffffffffffffffffffff1681526020019081526020015f205f6101000a81548160ff021916908315150217905550611c43610df3565b73ffffffffffffffffffffffffffffffffffffffff168273ffffffffffffffffffffffffffffffffffffffff16847f2f8788117e7eff1d82e926ec794901d17c78024a50270940304540a733656f0d60405160405180910390a460019050611caa565b5f90505b92915050565b5f611cbb83836109b7565b15611d90575f60055f8581526020019081526020015f205f015f8473ffffffffffffffffffffffffffffffffffffffff1673ffffffffffffffffffffffffffffffffffffffff1681526020019081526020015f205f6101000a81548160ff021916908315150217905550611d2d610df3565b73ffffffffffffffffffffffffffffffffffffffff168273ffffffffffffffffffffffffffffffffffffffff16847ff6391f5c32d9c69d2a47ea670b442974b53935d1edc7fd64eb21e047a839171b60405160405180910390a460019050611d94565b5f90505b92915050565b5f611da88284108484611db0565b905092915050565b5f611dba84611dc9565b82841802821890509392505050565b5f8115159050919050565b5f5ffd5b5f7fffffffff0000000000000000000000000000000000000000000000000000000082169050919050565b611e0c81611dd8565b8114611e16575f5ffd5b50565b5f81359050611e2781611e03565b92915050565b5f60208284031215611e4257611e41611dd4565b5b5f611e4f84828501611e19565b91505092915050565b5f8115159050919050565b611e6c81611e58565b82525050565b5f602082019050611e855f830184611e63565b92915050565b5f65ffffffffffff82169050919050565b611ea581611e8b565b82525050565b5f602082019050611ebe5f830184611e9c565b92915050565b5f81519050919050565b5f82825260208201905092915050565b8281835e5f83830152505050565b5f601f19601f8301169050919050565b5f611f0682611ec4565b611f108185611ece565b9350611f20818560208601611ede565b611f2981611eec565b840191505092915050565b5f6020820190508181035f830152611f4c8184611efc565b905092915050565b5f73ffffffffffffffffffffffffffffffffffffffff82169050919050565b5f611f7d82611f54565b9050919050565b611f8d81611f73565b8114611f97575f5ffd5b50565b5f81359050611fa881611f84565b92915050565b5f819050919050565b611fc081611fae565b8114611fca575f5ffd5b50565b5f81359050611fdb81611fb7565b92915050565b5f5f60408385031215611ff757611ff6611dd4565b5b5f61200485828601611f9a565b925050602061201585828601611fcd565b9150509250929050565b61202881611fae565b82525050565b5f6020820190506120415f83018461201f565b92915050565b5f5f5f6060848603121561205e5761205d611dd4565b5b5f61206b86828701611f9a565b935050602061207c86828701611f9a565b925050604061208d86828701611fcd565b9150509250925092565b5f819050919050565b6120a981612097565b81146120b3575f5ffd5b50565b5f813590506120c4816120a0565b92915050565b5f602082840312156120df576120de611dd4565b5b5f6120ec848285016120b6565b91505092915050565b6120fe81612097565b82525050565b5f6020820190506121175f8301846120f5565b92915050565b5f5f6040838503121561213357612132611dd4565b5b5f612140858286016120b6565b925050602061215185828601611f9a565b9150509250929050565b5f60ff82169050919050565b6121708161215b565b82525050565b5f6020820190506121895f830184612167565b92915050565b5f602082840312156121a4576121a3611dd4565b5b5f6121b184828501611f9a565b91505092915050565b6121c381611e8b565b81146121cd575f5ffd5b50565b5f813590506121de816121ba565b92915050565b5f602082840312156121f9576121f8611dd4565b5b5f612206848285016121d0565b91505092915050565b61221881611f73565b82525050565b5f6020820190506122315f83018461220f565b92915050565b5f60408201905061224a5f830185611e9c565b6122576020830184611e9c565b9392505050565b5f6040820190506122715f83018561220f565b61227e6020830184611e9c565b9392505050565b5f5f6040838503121561229b5761229a611dd4565b5b5f6122a885828601611f9a565b92505060206122b985828601611f9a565b9150509250929050565b7f4e487b71000000000000000000000000000000000000000000000000000000005f52602260045260245ffd5b5f600282049050600182168061230757607f821691505b60208210810361231a576123196122c3565b5b50919050565b5f6060820190506123335f83018661220f565b612340602083018561201f565b61234d604083018461201f565b949350505050565b7f4e487b71000000000000000000000000000000000000000000000000000000005f52601160045260245ffd5b5f61238c82611e8b565b915061239783611e8b565b9250828201905065ffffffffffff8111156123b5576123b4612355565b5b92915050565b5f6040820190506123ce5f83018561220f565b6123db60208301846120f5565b9392505050565b5f6123ec82611fae565b91506123f783611fae565b925082820190508082111561240f5761240e612355565b5b92915050565b7f45524332304361707065643a20636170206578636565646564000000000000005f82015250565b5f612449601983611ece565b915061245482612415565b602082019050919050565b5f6020820190508181035f8301526124768161243d565b9050919050565b5f819050919050565b5f819050919050565b5f6124a96124a461249f8461247d565b612486565b61215b565b9050919050565b6124b98161248f565b82525050565b5f6040820190506124d25f8301856124b0565b6124df602083018461201f565b9392505050565b5f6124f082611e8b565b91506124fb83611e8b565b9250828203905065ffffffffffff81111561251957612518612355565b5b9291505056fea2646970667358221220a16a26f004d694e300f556d867e29df12d83f412215d8108cbfc148a9b7c104464736f6c634300081c0033",
    "linkReferences": {},
    "deployedLinkReferences": {},
    "immutableReferences": {
        "5787": [
            {
                "length": 32,
                "start": 1949
            },
            {
                "length": 32,
                "start": 5752
            }
        ]
    },
    "inputSourceName": "project/contracts/Token.sol",
    "buildInfoId": "solc-0_8_28-8986a550d01e1bb601cf7fe36a8b20d96079c374"
}