{
    "_format": "hh3-artifact-1",
    "contractName": "TokenSale",
    "sourceName": "contracts/TokenSale.sol",
    "abi": [
        {
            "inputs": [
                {
                    "internalType": "address",
                    "name": "_token",
                    "type": "address"
                },
                {
                    "internalType": "uint256",
                    "name": "_buyPrice",
                    "type": "uint256"
                },
                {
                    "internalType": "uint256",
                    "name": "_sellPrice",
                    "type": "uint256"
                }
            ],
            "stateMutability": "nonpayable",
            "type": "constructor"
        },
        {
            "inputs": [],
            "name": "InsufficientContractBalance",
            "type": "error"
        },
        {
            "inputs": [],
            "name": "InsufficientETH",
            "type": "error"
        },
        {
            "inputs": [],
            "name": "InsufficientTokens",
            "type": "error"
        },
        {
            "inputs": [],
            "name": "InvalidPrice",
            "type": "error"
        },
        {
            "inputs": [
                {
                    "internalType": "address",
                    "name": "owner",
                    "type": "address"
                }
            ],
            "name": "OwnableInvalidOwner",
            "type": "error"
        },
        {
            "inputs": [
                {
                    "internalType": "address",
                    "name": "account",
                    "type": "address"
                }
            ],
            "name": "OwnableUnauthorizedAccount",
            "type": "error"
        },
        {
            "inputs": [],
            "name": "ReentrancyGuardReentrantCall",
            "type": "error"
        },
        {
            "inputs": [],
            "name": "TransferFailed",
            "type": "error"
        },
        {
            "inputs": [],
            "name": "ZeroAmount",
            "type": "error"
        },
        {
            "anonymous": false,
            "inputs": [
                {
                    "indexed": true,
                    "internalType": "address",
                    "name": "owner",
                    "type": "address"
                },
                {
                    "indexed": false,
                    "internalType": "uint256",
                    "name": "amount",
                    "type": "uint256"
                }
            ],
            "name": "ETHWithdrawn",
            "type": "event"
        },
        {
            "anonymous": false,
            "inputs": [
                {
                    "indexed": true,
                    "internalType": "address",
                    "name": "previousOwner",
                    "type": "address"
                },
                {
                    "indexed": true,
                    "internalType": "address",
                    "name": "newOwner",
                    "type": "address"
                }
            ],
            "name": "OwnershipTransferStarted",
            "type": "event"
        },
        {
            "anonymous": false,
            "inputs": [
                {
                    "indexed": true,
                    "internalType": "address",
                    "name": "previousOwner",
                    "type": "address"
                },
                {
                    "indexed": true,
                    "internalType": "address",
                    "name": "newOwner",
                    "type": "address"
                }
            ],
            "name": "OwnershipTransferred",
            "type": "event"
        },
        {
            "anonymous": false,
            "inputs": [
                {
                    "indexed": false,
                    "internalType": "uint256",
                    "name": "newBuyPrice",
                    "type": "uint256"
                },
                {
                    "indexed": false,
                    "internalType": "uint256",
                    "name": "newSellPrice",
                    "type": "uint256"
                }
            ],
            "name": "PricesUpdated",
            "type": "event"
        },
        {
            "anonymous": false,
            "inputs": [
                {
                    "indexed": true,
                    "internalType": "address",
                    "name": "buyer",
                    "type": "address"
                },
                {
                    "indexed": false,
                    "internalType": "uint256",
                    "name": "amount",
                    "type": "uint256"
                },
                {
                    "indexed": false,
                    "internalType": "uint256",
                    "name": "cost",
                    "type": "uint256"
                }
            ],
            "name": "TokensPurchased",
            "type": "event"
        },
        {
            "anonymous": false,
            "inputs": [
                {
                    "indexed": true,
                    "internalType": "address",
                    "name": "seller",
                    "type": "address"
                },
                {
                    "indexed": false,
                    "internalType": "uint256",
                    "name": "amount",
                    "type": "uint256"
                },
                {
                    "indexed": false,
                    "internalType": "uint256",
                    "name": "refund",
                    "type": "uint256"
                }
            ],
            "name": "TokensSold",
            "type": "event"
        },
        {
            "anonymous": false,
            "inputs": [
                {
                    "indexed": true,
                    "internalType": "address",
                    "name": "owner",
                    "type": "address"
                },
                {
                    "indexed": false,
                    "internalType": "uint256",
                    "name": "amount",
                    "type": "uint256"
                }
            ],
            "name": "TokensWithdrawn",
            "type": "event"
        },
        {
            "inputs": [],
            "name": "acceptOwnership",
            "outputs": [],
            "stateMutability": "nonpayable",
            "type": "function"
        },
        {
            "inputs": [],
            "name": "buyPrice",
            "outputs": [
                {
                    "internalType": "uint256",
                    "name": "",
                    "type": "uint256"
                }
            ],
            "stateMutability": "view",
            "type": "function"
        },
        {
            "inputs": [
                {
                    "internalType": "uint256",
                    "name": "tokenAmount",
                    "type": "uint256"
                }
            ],
            "name": "buyTokens",
            "outputs": [],
            "stateMutability": "payable",
            "type": "function"
        },
        {
            "inputs": [
                {
                    "internalType": "uint256",
                    "name": "tokenAmount",
                    "type": "uint256"
                }
            ],
            "name": "calculateBuyCost",
            "outputs": [
                {
                    "internalType": "uint256",
                    "name": "",
                    "type": "uint256"
                }
            ],
            "stateMutability": "view",
            "type": "function"
        },
        {
            "inputs": [
                {
                    "internalType": "uint256",
                    "name": "tokenAmount",
                    "type": "uint256"
                }
            ],
            "name": "calculateSellRefund",
            "outputs": [
                {
                    "internalType": "uint256",
                    "name": "",
                    "type": "uint256"
                }
            ],
            "stateMutability": "view",
            "type": "function"
        },
        {
            "inputs": [],
            "name": "getETHBalance",
            "outputs": [
                {
                    "internalType": "uint256",
                    "name": "",
                    "type": "uint256"
                }
            ],
            "stateMutability": "view",
            "type": "function"
        },
        {
            "inputs": [],
            "name": "getTokenBalance",
            "outputs": [
                {
                    "internalType": "uint256",
                    "name": "",
                    "type": "uint256"
                }
            ],
            "stateMutability": "view",
            "type": "function"
        },
        {
            "inputs": [],
            "name": "owner",
            "outputs": [
                {
                    "internalType": "address",
                    "name": "",
                    "type": "address"
                }
            ],
            "stateMutability": "view",
            "type": "function"
        },
        {
            "inputs": [],
            "name": "pendingOwner",
            "outputs": [
                {
                    "internalType": "address",
                    "name": "",
                    "type": "address"
                }
            ],
            "stateMutability": "view",
            "type": "function"
        },
        {
            "inputs": [],
            "name": "renounceOwnership",
            "outputs": [],
            "stateMutability": "nonpayable",
            "type": "function"
        },
        {
            "inputs": [],
            "name": "sellPrice",
            "outputs": [
                {
                    "internalType": "uint256",
                    "name": "",
                    "type": "uint256"
                }
            ],
            "stateMutability": "view",
            "type": "function"
        },
        {
            "inputs": [
                {
                    "internalType": "uint256",
                    "name": "tokenAmount",
                    "type": "uint256"
                }
            ],
            "name": "sellTokens",
            "outputs": [],
            "stateMutability": "nonpayable",
            "type": "function"
        },
        {
            "inputs": [],
            "name": "token",
            "outputs": [
                {
                    "internalType": "contract Token",
                    "name": "",
                    "type": "address"
                }
            ],
            "stateMutability": "view",
            "type": "function"
        },
        {
            "inputs": [
                {
                    "internalType": "address",
                    "name": "newOwner",
                    "type": "address"
                }
            ],
            "name": "transferOwnership",
            "outputs": [],
            "stateMutability": "nonpayable",
            "type": "function"
        },
        {
            "inputs": [
                {
                    "internalType": "uint256",
                    "name": "_buyPrice",
                    "type": "uint256"
                },
                {
                    "internalType": "uint256",
                    "name": "_sellPrice",
                    "type": "uint256"
                }
            ],
            "name": "updatePrices",
            "outputs": [],
            "stateMutability": "nonpayable",
            "type": "function"
        },
        {
            "inputs": [
                {
                    "internalType": "uint256",
                    "name": "amount",
                    "type": "uint256"
                }
            ],
            "name": "withdrawETH",
            "outputs": [],
            "stateMutability": "nonpayable",
            "type": "function"
        },
        {
            "inputs": [
                {
                    "internalType": "uint256",
                    "name": "amount",
                    "type": "uint256"
                }
            ],
            "name": "withdrawTokens",
            "outputs": [],
            "stateMutability": "nonpayable",
            "type": "function"
        },
        {
            "stateMutability": "payable",
            "type": "receive"
        }
    ],
    "bytecode": "0x60a060405234801561000f575f5ffd5b506040516122903803806122908339818101604052810190610031919061036b565b335f73ffffffffffffffffffffffffffffffffffffffff168173ffffffffffffffffffffffffffffffffffffffff16036100a2575f6040517f1e4fbdf700000000000000000000000000000000000000000000000000000000815260040161009991906103ca565b60405180910390fd5b6100b1816101e360201b60201c565b5060016002819055505f73ffffffffffffffffffffffffffffffffffffffff168373ffffffffffffffffffffffffffffffffffffffff160361011e576040517ebfc92100000000000000000000000000000000000000000000000000000000815260040160405180910390fd5b5f82148061012b57505f81145b15610161576040517ebfc92100000000000000000000000000000000000000000000000000000000815260040160405180910390fd5b818110610199576040517ebfc92100000000000000000000000000000000000000000000000000000000815260040160405180910390fd5b8273ffffffffffffffffffffffffffffffffffffffff1660808173ffffffffffffffffffffffffffffffffffffffff168152505081600381905550806004819055505050506103e3565b60015f6101000a81549073ffffffffffffffffffffffffffffffffffffffff02191690556102168161021960201b60201c565b50565b5f5f5f9054906101000a900473ffffffffffffffffffffffffffffffffffffffff169050815f5f6101000a81548173ffffffffffffffffffffffffffffffffffffffff021916908373ffffffffffffffffffffffffffffffffffffffff1602179055508173ffffffffffffffffffffffffffffffffffffffff168173ffffffffffffffffffffffffffffffffffffffff167f8be0079c531659141344cd1fd0a4f28419497f9722a3daafe3b4186f6b6457e060405160405180910390a35050565b5f5ffd5b5f73ffffffffffffffffffffffffffffffffffffffff82169050919050565b5f610307826102de565b9050919050565b610317816102fd565b8114610321575f5ffd5b50565b5f815190506103328161030e565b92915050565b5f819050919050565b61034a81610338565b8114610354575f5ffd5b50565b5f8151905061036581610341565b92915050565b5f5f5f60608486031215610382576103816102da565b5b5f61038f86828701610324565b93505060206103a086828701610357565b92505060406103b186828701610357565b9150509250925092565b6103c4816102fd565b82525050565b5f6020820190506103dd5f8301846103bb565b92915050565b608051611e4161044f5f395f81816101c3015281816102640152818161034b01528181610435015281816108ea015281816109be01528181610ba001528181610c4101528181610d2801528181610e1201528181611052015281816112d301526116f20152611e415ff3fe608060405260043610610101575f3560e01c806382b2e25711610094578063ef88d7f011610063578063ef88d7f014610797578063f14210a6146107bf578063f2217f15146107e7578063f2fde38b14610823578063fc0c546a1461084b576105c3565b806382b2e257146106ef5780638620410b146107195780638da5cb5b14610743578063e30c39781461076d576105c3565b80636c11bcd3116100d05780636c11bcd3146106715780636e94729814610699578063715018a6146106c357806379ba5097146106d9576105c3565b8063135a9c81146105c7578063315a095d146106035780633610724e1461062b5780634b75033414610647576105c3565b366105c3575f340361013f576040517f1f2a200500000000000000000000000000000000000000000000000000000000815260040160405180910390fd5b5f600354670de0b6b3a7640000346101579190611917565b6101619190611985565b90505f810361019c576040517f6a12f10400000000000000000000000000000000000000000000000000000000815260040160405180910390fd5b5f670de0b6b3a7640000600354836101b49190611917565b6101be9190611985565b90505f7f000000000000000000000000000000000000000000000000000000000000000073ffffffffffffffffffffffffffffffffffffffff166370a08231306040518263ffffffff1660e01b815260040161021a91906119f4565b602060405180830381865afa158015610235573d5f5f3e3d5ffd5b505050506040513d601f19601f820116820180604052508101906102599190611a3b565b9050828110610341577f000000000000000000000000000000000000000000000000000000000000000073ffffffffffffffffffffffffffffffffffffffff1663a9059cbb33856040518363ffffffff1660e01b81526004016102bd929190611a75565b6020604051808303815f875af11580156102d9573d5f5f3e3d5ffd5b505050506040513d601f19601f820116820180604052508101906102fd9190611ad1565b61033c576040517f08c379a000000000000000000000000000000000000000000000000000000000815260040161033390611b56565b60405180910390fd5b6104bd565b5f811115610424577f000000000000000000000000000000000000000000000000000000000000000073ffffffffffffffffffffffffffffffffffffffff1663a9059cbb33836040518363ffffffff1660e01b81526004016103a4929190611a75565b6020604051808303815f875af11580156103c0573d5f5f3e3d5ffd5b505050506040513d601f19601f820116820180604052508101906103e49190611ad1565b610423576040517f08c379a000000000000000000000000000000000000000000000000000000000815260040161041a90611b56565b60405180910390fd5b5b5f81846104319190611b74565b90507f000000000000000000000000000000000000000000000000000000000000000073ffffffffffffffffffffffffffffffffffffffff166340c10f1933836040518363ffffffff1660e01b815260040161048e929190611a75565b5f604051808303815f87803b1580156104a5575f5ffd5b505af11580156104b7573d5f5f3e3d5ffd5b50505050505b81341115610571575f3373ffffffffffffffffffffffffffffffffffffffff1683346104e99190611b74565b6040516104f590611bd4565b5f6040518083038185875af1925050503d805f811461052f576040519150601f19603f3d011682016040523d82523d5f602084013e610534565b606091505b505090508061056f576040517f90b8ec1800000000000000000000000000000000000000000000000000000000815260040160405180910390fd5b505b3373ffffffffffffffffffffffffffffffffffffffff167f8fafebcaf9d154343dad25669bfa277f4fbacd7ac6b0c4fed522580e040a0f3384846040516105b9929190611be8565b60405180910390a2005b5f5ffd5b3480156105d2575f5ffd5b506105ed60048036038101906105e89190611c23565b610875565b6040516105fa9190611c4e565b60405180910390f35b34801561060e575f5ffd5b5061062960048036038101906106249190611c23565b61089e565b005b61064560048036038101906106409190611c23565b610afe565b005b348015610652575f5ffd5b5061065b610fab565b6040516106689190611c4e565b60405180910390f35b34801561067c575f5ffd5b5061069760048036038101906106929190611c23565b610fb1565b005b3480156106a4575f5ffd5b506106ad611228565b6040516106ba9190611c4e565b60405180910390f35b3480156106ce575f5ffd5b506106d761122f565b005b3480156106e4575f5ffd5b506106ed611242565b005b3480156106fa575f5ffd5b506107036112d0565b6040516107109190611c4e565b60405180910390f35b348015610724575f5ffd5b5061072d61136e565b60405161073a9190611c4e565b60405180910390f35b34801561074e575f5ffd5b50610757611374565b60405161076491906119f4565b60405180910390f35b348015610778575f5ffd5b5061078161139b565b60405161078e91906119f4565b60405180910390f35b3480156107a2575f5ffd5b506107bd60048036038101906107b89190611c67565b6113c3565b005b3480156107ca575f5ffd5b506107e560048036038101906107e09190611c23565b611491565b005b3480156107f2575f5ffd5b5061080d60048036038101906108089190611c23565b61161b565b60405161081a9190611c4e565b60405180910390f35b34801561082e575f5ffd5b5061084960048036038101906108449190611ccf565b611644565b005b348015610856575f5ffd5b5061085f6116f0565b60405161086c9190611d55565b60405180910390f35b5f670de0b6b3a76400006003548361088d9190611917565b6108979190611985565b9050919050565b6108a6611714565b6108ae61179b565b5f81036108e7576040517f1f2a200500000000000000000000000000000000000000000000000000000000815260040160405180910390fd5b5f7f000000000000000000000000000000000000000000000000000000000000000073ffffffffffffffffffffffffffffffffffffffff166370a08231306040518263ffffffff1660e01b815260040161094191906119f4565b602060405180830381865afa15801561095c573d5f5f3e3d5ffd5b505050506040513d601f19601f820116820180604052508101906109809190611a3b565b9050818110156109bc576040517ff1b7e15e00000000000000000000000000000000000000000000000000000000815260040160405180910390fd5b7f000000000000000000000000000000000000000000000000000000000000000073ffffffffffffffffffffffffffffffffffffffff1663a9059cbb610a00611374565b846040518363ffffffff1660e01b8152600401610a1e929190611a75565b6020604051808303815f875af1158015610a3a573d5f5f3e3d5ffd5b505050506040513d601f19601f82011682018060405250810190610a5e9190611ad1565b610a9d576040517f08c379a0000000000000000000000000000000000000000000000000000000008152600401610a9490611db8565b60405180910390fd5b610aa5611374565b73ffffffffffffffffffffffffffffffffffffffff167f6352c5382c4a4578e712449ca65e83cdb392d045dfcf1cad9615189db2da244b83604051610aea9190611c4e565b60405180910390a250610afb6117df565b50565b610b0661179b565b5f8103610b3f576040517f1f2a200500000000000000000000000000000000000000000000000000000000815260040160405180910390fd5b5f670de0b6b3a764000060035483610b579190611917565b610b619190611985565b905080341015610b9d576040517f6a12f10400000000000000000000000000000000000000000000000000000000815260040160405180910390fd5b5f7f000000000000000000000000000000000000000000000000000000000000000073ffffffffffffffffffffffffffffffffffffffff166370a08231306040518263ffffffff1660e01b8152600401610bf791906119f4565b602060405180830381865afa158015610c12573d5f5f3e3d5ffd5b505050506040513d601f19601f82011682018060405250810190610c369190611a3b565b9050828110610d1e577f000000000000000000000000000000000000000000000000000000000000000073ffffffffffffffffffffffffffffffffffffffff1663a9059cbb33856040518363ffffffff1660e01b8152600401610c9a929190611a75565b6020604051808303815f875af1158015610cb6573d5f5f3e3d5ffd5b505050506040513d601f19601f82011682018060405250810190610cda9190611ad1565b610d19576040517f08c379a0000000000000000000000000000000000000000000000000000000008152600401610d1090611b56565b60405180910390fd5b610e9a565b5f811115610e01577f000000000000000000000000000000000000000000000000000000000000000073ffffffffffffffffffffffffffffffffffffffff1663a9059cbb33836040518363ffffffff1660e01b8152600401610d81929190611a75565b6020604051808303815f875af1158015610d9d573d5f5f3e3d5ffd5b505050506040513d601f19601f82011682018060405250810190610dc19190611ad1565b610e00576040517f08c379a0000000000000000000000000000000000000000000000000000000008152600401610df790611b56565b60405180910390fd5b5b5f8184610e0e9190611b74565b90507f000000000000000000000000000000000000000000000000000000000000000073ffffffffffffffffffffffffffffffffffffffff166340c10f1933836040518363ffffffff1660e01b8152600401610e6b929190611a75565b5f604051808303815f87803b158015610e82575f5ffd5b505af1158015610e94573d5f5f3e3d5ffd5b50505050505b81341115610f4e575f3373ffffffffffffffffffffffffffffffffffffffff168334610ec69190611b74565b604051610ed290611bd4565b5f6040518083038185875af1925050503d805f8114610f0c576040519150601f19603f3d011682016040523d82523d5f602084013e610f11565b606091505b5050905080610f4c576040517f90b8ec1800000000000000000000000000000000000000000000000000000000815260040160405180910390fd5b505b3373ffffffffffffffffffffffffffffffffffffffff167f8fafebcaf9d154343dad25669bfa277f4fbacd7ac6b0c4fed522580e040a0f338484604051610f96929190611be8565b60405180910390a25050610fa86117df565b50565b60045481565b610fb961179b565b5f8103610ff2576040517f1f2a200500000000000000000000000000000000000000000000000000000000815260040160405180910390fd5b5f670de0b6b3a76400006004548361100a9190611917565b6110149190611985565b905080471015611050576040517f786e0a9900000000000000000000000000000000000000000000000000000000815260040160405180910390fd5b7f000000000000000000000000000000000000000000000000000000000000000073ffffffffffffffffffffffffffffffffffffffff166323b872dd3330856040518463ffffffff1660e01b81526004016110ad93929190611dd6565b6020604051808303815f875af11580156110c9573d5f5f3e3d5ffd5b505050506040513d601f19601f820116820180604052508101906110ed9190611ad1565b61112c576040517f08c379a000000000000000000000000000000000000000000000000000000000815260040161112390611db8565b60405180910390fd5b5f3373ffffffffffffffffffffffffffffffffffffffff168260405161115190611bd4565b5f6040518083038185875af1925050503d805f811461118b576040519150601f19603f3d011682016040523d82523d5f602084013e611190565b606091505b50509050806111cb576040517f90b8ec1800000000000000000000000000000000000000000000000000000000815260040160405180910390fd5b3373ffffffffffffffffffffffffffffffffffffffff167f2dcf9433d75db0d8b1c172641f85e319ffe4ad22e108a95d1847ceb906e5195d8484604051611213929190611be8565b60405180910390a250506112256117df565b50565b5f47905090565b611237611714565b6112405f6117e9565b565b5f61124b611819565b90508073ffffffffffffffffffffffffffffffffffffffff1661126c61139b565b73ffffffffffffffffffffffffffffffffffffffff16146112c457806040517f118cdaa70000000000000000000000000000000000000000000000000000000081526004016112bb91906119f4565b60405180910390fd5b6112cd816117e9565b50565b5f7f000000000000000000000000000000000000000000000000000000000000000073ffffffffffffffffffffffffffffffffffffffff166370a08231306040518263ffffffff1660e01b815260040161132a91906119f4565b602060405180830381865afa158015611345573d5f5f3e3d5ffd5b505050506040513d601f19601f820116820180604052508101906113699190611a3b565b905090565b60035481565b5f5f5f9054906101000a900473ffffffffffffffffffffffffffffffffffffffff16905090565b5f60015f9054906101000a900473ffffffffffffffffffffffffffffffffffffffff16905090565b6113cb611714565b5f8214806113d857505f81145b1561140e576040517ebfc92100000000000000000000000000000000000000000000000000000000815260040160405180910390fd5b818110611446576040517ebfc92100000000000000000000000000000000000000000000000000000000815260040160405180910390fd5b81600381905550806004819055507f6546f60f34df611fa42503098acc39d5ab88bc73febe64b3cc14e5a92e3a66a78282604051611485929190611be8565b60405180910390a15050565b611499611714565b6114a161179b565b5f81036114da576040517f1f2a200500000000000000000000000000000000000000000000000000000000815260040160405180910390fd5b80471015611514576040517f786e0a9900000000000000000000000000000000000000000000000000000000815260040160405180910390fd5b5f61151d611374565b73ffffffffffffffffffffffffffffffffffffffff168260405161154090611bd4565b5f6040518083038185875af1925050503d805f811461157a576040519150601f19603f3d011682016040523d82523d5f602084013e61157f565b606091505b50509050806115ba576040517f90b8ec1800000000000000000000000000000000000000000000000000000000815260040160405180910390fd5b6115c2611374565b73ffffffffffffffffffffffffffffffffffffffff167f94b2de810873337ed265c5f8cf98c9cffefa06b8607f9a2f1fbaebdfbcfbef1c836040516116079190611c4e565b60405180910390a2506116186117df565b50565b5f670de0b6b3a7640000600454836116339190611917565b61163d9190611985565b9050919050565b61164c611714565b8060015f6101000a81548173ffffffffffffffffffffffffffffffffffffffff021916908373ffffffffffffffffffffffffffffffffffffffff1602179055508073ffffffffffffffffffffffffffffffffffffffff166116ab611374565b73ffffffffffffffffffffffffffffffffffffffff167f38d16b8cac22d99fc7c124b9cd0de2d3fa1faef420bfe791d8c362d765e2270060405160405180910390a350565b7f000000000000000000000000000000000000000000000000000000000000000081565b61171c611819565b73ffffffffffffffffffffffffffffffffffffffff1661173a611374565b73ffffffffffffffffffffffffffffffffffffffff16146117995761175d611819565b6040517f118cdaa700000000000000000000000000000000000000000000000000000000815260040161179091906119f4565b60405180910390fd5b565b60028054036117d6576040517f3ee5aeb500000000000000000000000000000000000000000000000000000000815260040160405180910390fd5b60028081905550565b6001600281905550565b60015f6101000a81549073ffffffffffffffffffffffffffffffffffffffff021916905561181681611820565b50565b5f33905090565b5f5f5f9054906101000a900473ffffffffffffffffffffffffffffffffffffffff169050815f5f6101000a81548173ffffffffffffffffffffffffffffffffffffffff021916908373ffffffffffffffffffffffffffffffffffffffff1602179055508173ffffffffffffffffffffffffffffffffffffffff168173ffffffffffffffffffffffffffffffffffffffff167f8be0079c531659141344cd1fd0a4f28419497f9722a3daafe3b4186f6b6457e060405160405180910390a35050565b5f819050919050565b7f4e487b71000000000000000000000000000000000000000000000000000000005f52601160045260245ffd5b5f611921826118e1565b915061192c836118e1565b925082820261193a816118e1565b91508282048414831517611951576119506118ea565b5b5092915050565b7f4e487b71000000000000000000000000000000000000000000000000000000005f52601260045260245ffd5b5f61198f826118e1565b915061199a836118e1565b9250826119aa576119a9611958565b5b828204905092915050565b5f73ffffffffffffffffffffffffffffffffffffffff82169050919050565b5f6119de826119b5565b9050919050565b6119ee816119d4565b82525050565b5f602082019050611a075f8301846119e5565b92915050565b5f5ffd5b611a1a816118e1565b8114611a24575f5ffd5b50565b5f81519050611a3581611a11565b92915050565b5f60208284031215611a5057611a4f611a0d565b5b5f611a5d84828501611a27565b91505092915050565b611a6f816118e1565b82525050565b5f604082019050611a885f8301856119e5565b611a956020830184611a66565b9392505050565b5f8115159050919050565b611ab081611a9c565b8114611aba575f5ffd5b50565b5f81519050611acb81611aa7565b92915050565b5f60208284031215611ae657611ae5611a0d565b5b5f611af384828501611abd565b91505092915050565b5f82825260208201905092915050565b7f5472616e73666572206661696c656400000000000000000000000000000000005f82015250565b5f611b40600f83611afc565b9150611b4b82611b0c565b602082019050919050565b5f6020820190508181035f830152611b6d81611b34565b9050919050565b5f611b7e826118e1565b9150611b89836118e1565b9250828203905081811115611ba157611ba06118ea565b5b92915050565b5f81905092915050565b50565b5f611bbf5f83611ba7565b9150611bca82611bb1565b5f82019050919050565b5f611bde82611bb4565b9150819050919050565b5f604082019050611bfb5f830185611a66565b611c086020830184611a66565b9392505050565b5f81359050611c1d81611a11565b92915050565b5f60208284031215611c3857611c37611a0d565b5b5f611c4584828501611c0f565b91505092915050565b5f602082019050611c615f830184611a66565b92915050565b5f5f60408385031215611c7d57611c7c611a0d565b5b5f611c8a85828601611c0f565b9250506020611c9b85828601611c0f565b9150509250929050565b611cae816119d4565b8114611cb8575f5ffd5b50565b5f81359050611cc981611ca5565b92915050565b5f60208284031215611ce457611ce3611a0d565b5b5f611cf184828501611cbb565b91505092915050565b5f819050919050565b5f611d1d611d18611d13846119b5565b611cfa565b6119b5565b9050919050565b5f611d2e82611d03565b9050919050565b5f611d3f82611d24565b9050919050565b611d4f81611d35565b82525050565b5f602082019050611d685f830184611d46565b92915050565b7f546f6b656e207472616e73666572206661696c656400000000000000000000005f82015250565b5f611da2601583611afc565b9150611dad82611d6e565b602082019050919050565b5f6020820190508181035f830152611dcf81611d96565b9050919050565b5f606082019050611de95f8301866119e5565b611df660208301856119e5565b611e036040830184611a66565b94935050505056fea2646970667358221220c2f10ec24f5c8f5b0ef91337a65c34c555d85b01556aeaaf5d6d940a8ef6b28064736f6c634300081c0033",
    "linkReferences": {},
    "deployedLinkReferences": {},
    "immutableReferences": {
        "5909": [
            {
                "length": 32,
                "start": 451
            },
            {
                "length": 32,
                "start": 612
            },
            {
                "length": 32,
                "start": 843
            },
            {
                "length": 32,
                "start": 1077
            },
            {
                "length": 32,
                "start": 2282
            },
            {
                "length": 32,
                "start": 2494
            },
            {
                "length": 32,
                "start": 2976
            },
            {
                "length": 32,
                "start": 3137
            },
            {
                "length": 32,
                "start": 3368
            },
            {
                "length": 32,
                "start": 3602
            },
            {
                "length": 32,
                "start": 4178
            },
            {
                "length": 32,
                "start": 4819
            },
            {
                "length": 32,
                "start": 5874
            }
        ]
    },
    "inputSourceName": "project/contracts/TokenSale.sol",
    "buildInfoId": "solc-0_8_28-8986a550d01e1bb601cf7fe36a8b20d96079c374"
}